:100000000A128A15802EFF1B0D2883137F18831771
:100010000008840A0319FF0A080000308A00040857
:10002000840A820700347034723465347334733454
:10003000203453345734313420346F347234203404
:100040005334573432342034003450346F347334E2
:100050006934743469346F346E3469346E3467349F
:1000600020342034203420342034003450346F3491
:1000700073346934743469346F346E343D342034ED
:1000800020342034203420342034003447343134B8
:1000900035342034443465346D346F3420340034C6
:1000AC0098343A34003400347108700403195F2812
:1000BC0060289528F501F50A6F2801300310F00D22
:1000CC00F10DFF3E031D64280130F4007408F507A0
:1000DC006F28F11F722873286328752875287108FA
:1000EC007302031D7B2870087202031C7E287F2874
:1000FC0086287008F2027108031CF303F3028628A9
:10010C0001300310F10CF00CFF3E031D8728013069
:10011C00F502031D922893287528952895287308B5
:10012C00F101F1077208F001F0079C280800F501B5
:10013C00F601710870040319A428A528E228F70118
:10014C00F70AB42801300310F00DF10DFF3E031D2A
:10015C00A9280130F4007408F707B428F11FB72858
:10016C00B828A828BA28BA2801300310F50DF60DC6
:10017C00FF3E031DBB2871087302031DC7287008BE
:10018C007202031CCA28CB28D3287008F20271080B
:10019C00031CF303F3027514D32801300310F10C84
:1001AC00F00CFF3E031DD4280130F702031DDF289D
:1001BC00E028BA28E228E2287608F101F107750850
:1001CC00F001F007E92808000030F4000030F300DB
:1001DC000030F2000030F10083120313981CF72852
:1001EC00F828252918121816E501E50AFF304729C9
:1001FC00472925290130F107003003180130F20797
:10020C00003003180130F307003003180130F407F5
:10021C0074086402031D1C2973086302031D1C2946
:10022C0072086202031D1C297108610203181F2940
:10023C0020292529E501E50AFF30472947298C1E8D
:10024C002829292900292A291A08F0007008F50004
:10025C00181D312932294329392939291A08F00066
:10026C007008F50039298C1A3C293D293429E501FF
:10027C00E50AFF30472947294729E5017508472931
:10028C00472908007308031D4C295429720871046E
:10029C007004031D522953296A2954290030F00097
:1002AC000030F1000030F200C229C2296A29013065
:1002BC00F5007508F30701300310F20CF10CF00C8B
:1002CC00FF3E031D62296A29FE307205031D6F294A
:1002DC0070295D29882988290130F5007508F307F4
:1002EC000130F007003003180130F107003003181B
:1002FC000130F20701300310F20CF10CF00CFF3E50
:10030C00031D8129FF307205031D8D298E29722949
:10031C009B299B290130F30201300310F00DF10DE4
:10032C00F20DFF3E031D93299B29F11F9E299F2946
:10033C0090297318A229A329A929FF30F0057F3031
:10034C00F105FF30F2050310F30C7308F500F6010C
:10035C00F70110300310F50DF60DF70DFF3E031DE0
:10036C00B0297508F0047608F1047708F2047408D3
:10037C00031DC129C229F21708007D08FF3E831214
:10038C000313A0002008B5007D08243E84008313CD
:10039C008001B601112A0A30F0000030F1007C080F
:1003AC00F301F3077B08F201F2070A128A115A20B3
:1003BC000A128A117008303E83120313A000360310
:1003CC00FF3A3507243E84002008831380000A304E
:1003DC00F0000030F1007C08F301F3077B08F20118
:1003EC00F2070A128A119D200A128A117108FC0167
:1003FC00FC077008FB01FB077C087B04031D072A24
:10040C00082A0A2A182A182A013083120313A0007A
:10041C002008B607112A7D083602031C162A172A53
:10042C00D129182A831203133603FF3A3507243EC9
:10043C00F9000030FA000A128A15A1270A128A1153
:10044C0083120313B401372A20300A128A15E026CE
:10045C000A128A11013083120313A0002008B4077A
:10046C00372A3608A000A101A009A109A00A031986
:10047C00A10A35082007A20021080318210AA300AD
:10048C002308803A803C031D4D2A22083402031CA9
:10049C00502A512A2A2A522A080078088312031358
:1004AC00A0007908A1007A08A2000310210D220DEA
:1004BC00A3002308A900A908031D652A662A702A2F
:1004CC000030FB000030FA000030F9000030F8007A
:1004DC00F82AF82A7808A0007908A1007A08A20066
:1004EC0017300310A20CA10CA00CFF3E031D772AA1
:1004FC002008A3002308A400F917FF30F805FF30EB
:10050C00F9050030FA057808A5007908A6007A08E4
:10051C00A700A8018E30A902A91F952A962ABB2AEA
:10052C002908803A8F3E03189C2A9D2AA82A00305D
:10053C00FB000030FA000030F9000030F800F82A17
:10054C00F82AA82A01300310A80CA70CA60CA50C9D
:10055C00FF3E031DA92A0130A0002008A907031D96
:10056C00B82AB92AA82ADF2ADF2A18302902031C44
:10057C00C02AC12AD82A0030FB000030FA00003013
:10058C00F9000030F800F82AF82AD82A0130A00027
:10059C000310A50DA60DA70DA80DA00BCE2A01309A
:1005AC00A902D82AA908031DDC2ADD2ACC2ADF2AB5
:1005BC00DF2A2408031DE32AEF2AA509A609A709A7
:1005CC00A809A50A0319A60A0319A70A0319A80A58
:1005DC00EF2A2808FB002708FA002608F90025084E
:1005EC00F800F82A0800831203134008C3004108DE
:1005FC00C4004208C5000310440D450DC600460852
:10060C00CB00CB08031D0B2B0C2B142B0030BD0087
:10061C000030BE000030BF00C02BC02B3D08C30013
:10062C003E08C4003F08C5000310440D450DC6002C
:10063C004608CC00CC08031D242B252B2D2B003079
:10064C00BD000030BE000030BF00C02BC02B0030FE
:10065C00C8000030C9000030CA0089304C07C30004
:10066C004308CB024008C3004108C4004208C5003F
:10067C0010300310C50CC40CC30CFF3E031D3F2BE4
:10068C004308C6004608CC003D08C3003E08C40021
:10069C003F08C50010300310C50CC40CC30CFF3E42
:1006AC00031D512B4308C6004608CC068030C300FE
:1006BC004308CC05C117FF30C005FF30C105003021
:1006CC00C205BE17FF30BD05FF30BE050030BF05AB
:1006DC001830C3004308C700732B01300310C80D3A
:1006EC00C90DCA0DFF3E031D742B3F084202031DAA
:1006FC00852B3E084102031D852B3D084002031C3F
:10070C00882B892B952B3D08C0023E08031C3E0FFD
:10071C00C1023F08031C3F0AC2024814952B01304A
:10072C000310C00DC10DC20DFF3E031D962B0130F1
:10073C00C702031DA22BA32B732BA42B4808F0007C
:10074C004908F1004A08F2004B08C3004308F300C3
:10075C004C08C4004408F4000A128A1148210A12F9
:10076C008A11700883120313BD007108BE00720851
:10077C00BF00C02B0800831203132D08B3002E08F2
:10078C00B4002F08B5000310340D350DB600360833
:10079C00B700B708031DD32BD42BDC2B0030AD00D6
:1007AC000030AE000030AF00AE2CAE2C3008B300E1
:1007BC003108B4003208B5000310340D350DB60005
:1007CC003608BC00BC08031DEC2BED2BF52B0030C0
:1007DC00AD000030AE000030AF00AE2CAE2C3C08AB
:1007EC007B3EB3003308B7072D08B3002E08B400C6
:1007FC002F08B50010300310B50CB40CB30CFF3E31
:10080C00031D012C3308B6003608BC003008B300B9
:10081C003108B4003208B50010300310B50CB40C1C
:10082C00B30CFF3E031D132C3308B6003608BC0670
:10083C008030B3003308BC05AE17B117FF30B005DC
:10084C00FF30B1050030B2050030B8000030B900FF
:10085C000030BA000730B3003308BB00352C2D1C18
:10086C00382C392C4A2C3008B807310803110318DE
:10087C00310A0319422CB907320803110318320A42
:10088C000319492CBA074A2C01300310AF0CAE0CDB
:10089C00AD0CFF3E031D4B2C01300310B00DB10D00
:1008AC00B20DFF3E031D532C0130BB02031D5F2C08
:1008BC00602C352C612C0930B3003308BB00662C3E
:1008CC002D1C692C6A2C7B2C3008B80731080311BD
:1008DC000318310A0319732CB907320803110318D2
:1008EC00320A03197A2CBA077B2C01300310AF0C97
:1008FC00AE0CAD0CFF3E031D7C2C01300310BA0C6A
:10090C00B90CB80CFF3E031D842C0130BB02031D37
:10091C00902C912C662C922C3808F0003908F100A0
:10092C003A08F2003708B3003308F3003C08B4006F
:10093C003408F4000A128A1148210A128A1170082C
:10094C0083120313AD007108AE007208AF00AE2C19
:10095C00080083120313C000C401C101C2010716B1
:10096C00C301FF30F9007908B000FF30F9007908B5
:10097C00B1004008F9007908B2003208F900790892
:10098C00C3077808023EF9007908B3003308F90070
:10099C007908C3077608F9007908B4003408F9001F
:1009AC007908C307C501C601FA2C83120313450845
:1009BC007707F9007908840083130008FA004508CA
:1009CC00053E303E84007A0880004508053E303EE6
:1009DC0084000008F9007908C3070130C507031823
:1009EC00C60A0030C607FA2C4608803AF900803057
:1009FC007902031D032D78084502031C062D072DD3
:100A0C00DB2C082D831203134309F9004508053E1E
:100A1C00303E84007908831380003308043EF900CB
:100A2C007908C400C501C601302D83120313450893
:100A3C00303E8400831300080A128A15FE250A1220
:100A4C008A11013083120313C5070318C60A00303C
:100A5C00C607302D4608803AF90080307902031D14
:100A6C00392D44084502031C3C2D3D2D1B2D3E2DDC
:100A7C00831203134008FE3A031D452D462D4D2DC0
:100A8C007608013A031D4B2D4C2D312E4D2D760839
:100A9C00023A031D522D532D622D770A84008313C5
:100AAC000008F9007908F800770A84000008063E6F
:100ABC00F9007908C400672D0630F9007908C400E4
:100ACC00672D0712C101C201C501C601872D0A128B
:100ADC008A11EA200A128A11F900831203134508BD
:100AEC00203E84007908831380006508031D7F2D48
:100AFC00812D4214952D0130C5070318C60A00300C
:100B0C00C6074608803AF90080307902031D902D03
:100B1C0044084502031C932D942D6D2D952D8312A5
:100B2C0003132008FF3A031D9C2D9D2DA32D210896
:100B3C00FF3A0319A22DA32DA52DC214A52D220811
:100B4C0040060319AA2DAB2DAD2D4215AD2D240851
:100B5C00031DB12DB92D2408F900FA017908C1043F
:100B6C007A08C204B92DC3010230C5000030C6009A
:100B7C00D02D831203134508203E840083130008F4
:100B8C00F9007908C3070130C5070318C60A0030FD
:100B9C00C607D02D4608803AF90080307902031D33
:100BAC00D92D44084502031CDC2DDD2DBF2DDE2D77
:100BBC00831203134308FF3A0319E52DE62DE82DA4
:100BCC00C215E82DA408031DEC2DED2D312E421875
:100BDC00F02DF12D312E7608013A031DF62DF72D4F
:100BEC00FF2D2208F9007708840079088313800010
:100BFC00312E7608023A031D042E052E312EC50126
:100C0C00C6011F2E831203134508053E203E8400A7
:100C1C0083130008F90045087707FA007A08840066
:100C2C00790880000130C5070318C60A0030C607D2
:100C3C001F2E4608803AF90080307902031D282EB9
:100C4C0078084502031C2B2E2C2E082E312E312E0B
:100C5C00312E312E312E831203134208F701F70780
:100C6C004108F601F6073A2E08000A128A152E26BC
:100C7C000A128A110A128A154F270A128A110A12AD
:100C8C008A1514260A128A11033083120313D0001A
:100C9C008A30CF005630CE00CE0B522ECF0B522EB8
:100CAC00D00B522E592E0A128A15EA250A128A11D5
:100CBC0000300A128A1563260A128A113430F900A0
:100CCC008030FA000A128A15A1270A128A111430F0
:100CDC000A128A1563260A128A110130F900803033
:100CEC00FA000A128A15A1270A128A110D308312F2
:100CFC000313D000AF30CF00C130CE00CE0B842E0A
:100D0C00CF0B842ED00B842E00000D3083120313D6
:100D1C00D000AF30CF00C130CE00CE0B932ECF0B16
:100D2C00932ED00B932E00009B2E831203130618C8
:100D3C00A02EA12E2D2F14300A128A1563260A120A
:100D4C008A111330F9008030FA000A128A15A12793
:100D5C000A128A11B12E83120313403086060D300D
:100D6C00D000AF30CF00C130CE00CE0BBB2ECF0B9E
:100D7C00BB2ED00BBB2E00008312031380308606D3
:100D8C00FB01FB0A0330CE004E08FC0001300A12B6
:100D9C008A159D260A128A111030FB000130FC00C6
:100DAC00033083120313CE004E08FD0001300A12EB
:100DBC008A1578270A128A110D3083120313D0007A
:100DCC00AF30CF00C130CE00CE0BEA2ECF0BEA2EC7
:100DDC00D00BEA2E0000831203138618F62EF72E82
:100DEC00F92E2D2F2D2F2030FB000230FC0003306C
:100DFC00CE004E08FD0001300A128A1578270A121F
:100E0C008A11FB01033083120313CE004E08FC0041
:100E1C0001300A128A159D260A128A110D3083128E
:100E2C000313D000AF30CF00C130CE00CE0B1C2F3F
:100E3C00CF0B1C2FD00B1C2F000083120313861812
:100E4C00282F292FB12E2D2F2D2FB12EB12E8618F4
:100E5C00302F312F9B2E14300A128A1563260A125A
:100E6C008A112430F9008030FA000A128A15A12761
:100E7C000A128A11FB01033083120313CE004E08B1
:100E8C00FC0001300A128A152A270A128A114E2FE9
:100E9C00513083120313CE004E08FB0001300A12AE
:100EAC008A15BC260A128A1183120313DF01E00192
:100EBC005208CE00CF014E08DF004F08E0005F085B
:100ECC00CF00CE014E08DF004F08E0005108CE00E5
:100EDC00CF014E08DF044F08E0046008AB01AB07FC
:100EEC005F08AA01AA070A128A1548260A128A1153
:100EFC00831203132A08F8002B08F9002C08FA00B7
:100F0C000A128A1153220A128A11790883120313C6
:100F1C00DE01DE077808DD01DD075E08AB01AB07FB
:100F2C005D08AA01AA070A128A1548260A128A1114
:100F3C00831203132A08B0002B08B1002C08B2004E
:100F4C000030AD00B430AE004330AF000A128A114D
:100F5C00C1230A128A11831203132D08C0002E0814
:100F6C00C1002F08C2000030BD008830BE004430E4
:100F7C00BF000A128A11F9220A128A118312031372
:100F8C003D08F8003E08F9003F08FA000A128A11E1
:100F9C0053220A128A11790883120313DC01DC072D
:100FAC007808DB01DB071E300A128A1563260A1249
:100FBC008A11831203135C08FC01FC075B08FB011C
:100FCC00FB070330CE004E08FD000A128A11C32124
:100FDC000A128A11831203130618F52FF62F4E2FBF
:100FEC009B2E9B2E4E2F4E2F9B2E9B2E9B2E0A12F2
:040FFC008A1100282E
:101BD40001300A128A1505270A128A150030F3000B
:101BE4000030F2000230F1005830F0000A128A1579
:101BF400D0270A128A150800F000002E831603135A
:101C0400981C052E062E002E072E7008831203132F
:101C140099000C2E83160313981C112E122E0C2ED1
:101C2400132E08008316031387170713071287124E
:101C340018158316031787150330831603139900A9
:101C440001309A008312031398178316031398160E
:101C540083120313181608008312031386018701E5
:101C640088018901FF308316031385000330860041
:101C740080308700880103308900831603178801A8
:101C840089018312031306138613080083120313B6
:101C94002A08F0002B08F100F2018E30FC007C08C9
:101CA400F300F4010A128A1148210A128A157008F5
:101CB40083120313AA007108AB007208AC00622EF1
:101CC4000800FA0010307A020318692E6A2E722E68
:101CD4007A08803E0A128A1505270A128A157F2E71
:101CE4007A08EC3EF9007908FA007A08C03E0A1234
:101CF4008A1505270A128A157F2E0800E5010A12A3
:101D04008A1156200A128A15E1000A128A115720F4
:101D14000A128A15E2000A128A1158200A128A1538
:101D2400E3000A128A1159200A128A15E400830179
:101D34000A128A113B2E83120313CA001930C700FA
:101D44004708CB007B08C7004708CC007C08C700C5
:101D54004708F6004B30C8004808F7000230C900B5
:101D64004908F8004A080A128A11AF240A128A158F
:101D7400BB2E0800FC00243083120313C7007B0829
:101D840084004708831380000230C7007B0A840064
:101D9400470880000230C7004708F6007B08C800E7
:101DA4004808F7000230C9004908F8007C080A1204
:101DB4008A11AF240A128A15DF2E0800F800831254
:101DC400031306167808880086160030F3000030E6
:101DD400F2000030F1000A30F0000A128A15D02710
:101DE4000A128A158312031386120030F30000309E
:101DF400F2000030F1000A30F0000A128A15D027F0
:101E04000A128A150800F8008312031306127808D0
:101E1400880086160030F3000030F2000030F10034
:101E24003230F0000A128A15D0270A128A1583125A
:101E3400031386120030F3000030F2000030F1008A
:101E44003230F0000A128A15D0270A128A150800C7
:101E540083120313CA001830C7004708CB007B085D
:101E6400C7004708CC007C08C7004708F6004B3081
:101E7400C8004808F7000230C9004908F8004A08B9
:101E84000A128A11AF240A128A157708FC01FC078A
:101E94007608FB01FB074E2F080083160313880105
:101EA4000612861201300A128A1505270A128A15AB
:101EB40002300A128A1505270A128A1506300A12F8
:101EC4008A1505270A128A150C300A128A15052765
:101ED4000A128A1538300A128A1505270A128A1539
:101EE4000A128A15EA250A128A15080083120313B6
:101EF400CA001E30C7004708CB007B08C70047084C
:101F0400CC007C08C7004708CD007D08C7004708FF
:101F1400F6004B30C8004808F7000330C9004908F0
:101F2400F8004A080A128A11AF240A128A1577089F
:101F3400FC01FC077608FB01FB07A02F0800B72F64
:101F44007A0883120313FF00790884000A128A11A5
:101F540003200A128A150A128A15E0260A128A1523
:101F64000130F9070318FA0AB72F7A08790403191C
:101F7400BC2FBD2FCF2F7A0883120313FF007908DB
:101F840084000A128A1103200A128A150038031DDC
:101F9400CC2FCD2FA22FCF2FCF2F08007308720480
:101FA40071047004031DD72FD82FDA2FFF2FFF2FB2
:101FB4000130F4000030F5000030F6000030F70086
:101FC4007408F0027508031C750FE92FEA2FF1025B
:101FD4007608031C760FEF2FF02FF2027708031C0C
:101FE400770FF52FF62FF30273087204710470044F
:0C1FF400031DFD2FFE2FDA2FFF2F080029
:02400E00F2ECD2
:00000001FF
